{
  "_format": "hh-sol-artifact-1",
  "contractName": "CourseManagement",
  "sourceName": "contracts/CourseManagement.sol",
  "abi": [
    {
      "anonymous": false,
      "inputs": [
        {
          "indexed": false,
          "internalType": "uint256",
          "name": "id",
          "type": "uint256"
        },
        {
          "indexed": false,
          "internalType": "string",
          "name": "title",
          "type": "string"
        },
        {
          "indexed": false,
          "internalType": "string",
          "name": "instructor",
          "type": "string"
        }
      ],
      "name": "CourseAdded",
      "type": "event"
    },
    {
      "inputs": [
        {
          "internalType": "string",
          "name": "_title",
          "type": "string"
        },
        {
          "internalType": "string",
          "name": "_description",
          "type": "string"
        },
        {
          "internalType": "string",
          "name": "_instructor",
          "type": "string"
        }
      ],
      "name": "addCourse",
      "outputs": [],
      "stateMutability": "nonpayable",
      "type": "function"
    },
    {
      "inputs": [],
      "name": "courseCount",
      "outputs": [
        {
          "internalType": "uint256",
          "name": "",
          "type": "uint256"
        }
      ],
      "stateMutability": "view",
      "type": "function"
    },
    {
      "inputs": [
        {
          "internalType": "uint256",
          "name": "",
          "type": "uint256"
        }
      ],
      "name": "courses",
      "outputs": [
        {
          "internalType": "uint256",
          "name": "id",
          "type": "uint256"
        },
        {
          "internalType": "string",
          "name": "title",
          "type": "string"
        },
        {
          "internalType": "string",
          "name": "description",
          "type": "string"
        },
        {
          "internalType": "string",
          "name": "instructor",
          "type": "string"
        }
      ],
      "stateMutability": "view",
      "type": "function"
    },
    {
      "inputs": [],
      "name": "getCourses",
      "outputs": [
        {
          "components": [
            {
              "internalType": "uint256",
              "name": "id",
              "type": "uint256"
            },
            {
              "internalType": "string",
              "name": "title",
              "type": "string"
            },
            {
              "internalType": "string",
              "name": "description",
              "type": "string"
            },
            {
              "internalType": "string",
              "name": "instructor",
              "type": "string"
            }
          ],
          "internalType": "struct CourseManagement.Course[]",
          "name": "",
          "type": "tuple[]"
        }
      ],
      "stateMutability": "view",
      "type": "function"
    }
  ],
  "bytecode": "0x608060405234801561001057600080fd5b50610eb4806100206000396000f3fe608060405234801561001057600080fd5b506004361061004c5760003560e01c8063660551591461005157806384756c771461006f57806396f979d21461008b578063cc126479146100be575b600080fd5b6100596100dc565b60405161006691906105e8565b60405180910390f35b6100896004803603810190610084919061075d565b6100e2565b005b6100a560048036038101906100a09190610830565b6101d8565b6040516100b594939291906108dc565b60405180910390f35b6100c66103b0565b6040516100d39190610ac2565b60405180910390f35b60015481565b60006040518060800160405280600154815260200185815260200184815260200183815250908060018154018082558091505060019003906000526020600020906004020160009091909190915060008201518160000155602082015181600101908161014f9190610cf0565b5060408201518160020190816101659190610cf0565b50606082015181600301908161017b9190610cf0565b5050507f60dc19c8b14fd3a7f20dd113bdacc08bd8cdbfc6d28dcf1169272fc32eaef6c360015484836040516101b393929190610dc2565b60405180910390a1600160008154809291906101ce90610e36565b9190505550505050565b600081815481106101e857600080fd5b906000526020600020906004020160009150905080600001549080600101805461021190610b13565b80601f016020809104026020016040519081016040528092919081815260200182805461023d90610b13565b801561028a5780601f1061025f5761010080835404028352916020019161028a565b820191906000526020600020905b81548152906001019060200180831161026d57829003601f168201915b50505050509080600201805461029f90610b13565b80601f01602080910402602001604051908101604052809291908181526020018280546102cb90610b13565b80156103185780601f106102ed57610100808354040283529160200191610318565b820191906000526020600020905b8154815290600101906020018083116102fb57829003601f168201915b50505050509080600301805461032d90610b13565b80601f016020809104026020016040519081016040528092919081815260200182805461035990610b13565b80156103a65780601f1061037b576101008083540402835291602001916103a6565b820191906000526020600020905b81548152906001019060200180831161038957829003601f168201915b5050505050905084565b60606000805480602002602001604051908101604052809291908181526020016000905b828210156105c657838290600052602060002090600402016040518060800160405290816000820154815260200160018201805461041190610b13565b80601f016020809104026020016040519081016040528092919081815260200182805461043d90610b13565b801561048a5780601f1061045f5761010080835404028352916020019161048a565b820191906000526020600020905b81548152906001019060200180831161046d57829003601f168201915b505050505081526020016002820180546104a390610b13565b80601f01602080910402602001604051908101604052809291908181526020018280546104cf90610b13565b801561051c5780601f106104f15761010080835404028352916020019161051c565b820191906000526020600020905b8154815290600101906020018083116104ff57829003601f168201915b5050505050815260200160038201805461053590610b13565b80601f016020809104026020016040519081016040528092919081815260200182805461056190610b13565b80156105ae5780601f10610583576101008083540402835291602001916105ae565b820191906000526020600020905b81548152906001019060200180831161059157829003601f168201915b505050505081525050815260200190600101906103d4565b50505050905090565b6000819050919050565b6105e2816105cf565b82525050565b60006020820190506105fd60008301846105d9565b92915050565b6000604051905090565b600080fd5b600080fd5b600080fd5b600080fd5b6000601f19601f8301169050919050565b7f4e487b7100000000000000000000000000000000000000000000000000000000600052604160045260246000fd5b61066a82610621565b810181811067ffffffffffffffff8211171561068957610688610632565b5b80604052505050565b600061069c610603565b90506106a88282610661565b919050565b600067ffffffffffffffff8211156106c8576106c7610632565b5b6106d182610621565b9050602081019050919050565b82818337600083830152505050565b60006107006106fb846106ad565b610692565b90508281526020810184848401111561071c5761071b61061c565b5b6107278482856106de565b509392505050565b600082601f83011261074457610743610617565b5b81356107548482602086016106ed565b91505092915050565b6000806000606084860312156107765761077561060d565b5b600084013567ffffffffffffffff81111561079457610793610612565b5b6107a08682870161072f565b935050602084013567ffffffffffffffff8111156107c1576107c0610612565b5b6107cd8682870161072f565b925050604084013567ffffffffffffffff8111156107ee576107ed610612565b5b6107fa8682870161072f565b9150509250925092565b61080d816105cf565b811461081857600080fd5b50565b60008135905061082a81610804565b92915050565b6000602082840312156108465761084561060d565b5b60006108548482850161081b565b91505092915050565b600081519050919050565b600082825260208201905092915050565b60005b8381101561089757808201518184015260208101905061087c565b60008484015250505050565b60006108ae8261085d565b6108b88185610868565b93506108c8818560208601610879565b6108d181610621565b840191505092915050565b60006080820190506108f160008301876105d9565b818103602083015261090381866108a3565b9050818103604083015261091781856108a3565b9050818103606083015261092b81846108a3565b905095945050505050565b600081519050919050565b600082825260208201905092915050565b6000819050602082019050919050565b61096b816105cf565b82525050565b600082825260208201905092915050565b600061098d8261085d565b6109978185610971565b93506109a7818560208601610879565b6109b081610621565b840191505092915050565b60006080830160008301516109d36000860182610962565b50602083015184820360208601526109eb8282610982565b91505060408301518482036040860152610a058282610982565b91505060608301518482036060860152610a1f8282610982565b9150508091505092915050565b6000610a3883836109bb565b905092915050565b6000602082019050919050565b6000610a5882610936565b610a628185610941565b935083602082028501610a7485610952565b8060005b85811015610ab05784840389528151610a918582610a2c565b9450610a9c83610a40565b925060208a01995050600181019050610a78565b50829750879550505050505092915050565b60006020820190508181036000830152610adc8184610a4d565b905092915050565b7f4e487b7100000000000000000000000000000000000000000000000000000000600052602260045260246000fd5b60006002820490506001821680610b2b57607f821691505b602082108103610b3e57610b3d610ae4565b5b50919050565b60008190508160005260206000209050919050565b60006020601f8301049050919050565b600082821b905092915050565b600060088302610ba67fffffffffffffffffffffffffffffffffffffffffffffffffffffffffffffffff82610b69565b610bb08683610b69565b95508019841693508086168417925050509392505050565b6000819050919050565b6000610bed610be8610be3846105cf565b610bc8565b6105cf565b9050919050565b6000819050919050565b610c0783610bd2565b610c1b610c1382610bf4565b848454610b76565b825550505050565b600090565b610c30610c23565b610c3b818484610bfe565b505050565b5b81811015610c5f57610c54600082610c28565b600181019050610c41565b5050565b601f821115610ca457610c7581610b44565b610c7e84610b59565b81016020851015610c8d578190505b610ca1610c9985610b59565b830182610c40565b50505b505050565b600082821c905092915050565b6000610cc760001984600802610ca9565b1980831691505092915050565b6000610ce08383610cb6565b9150826002028217905092915050565b610cf98261085d565b67ffffffffffffffff811115610d1257610d11610632565b5b610d1c8254610b13565b610d27828285610c63565b600060209050601f831160018114610d5a5760008415610d48578287015190505b610d528582610cd4565b865550610dba565b601f198416610d6886610b44565b60005b82811015610d9057848901518255600182019150602085019450602081019050610d6b565b86831015610dad5784890151610da9601f891682610cb6565b8355505b6001600288020188555050505b505050505050565b6000606082019050610dd760008301866105d9565b8181036020830152610de981856108a3565b90508181036040830152610dfd81846108a3565b9050949350505050565b7f4e487b7100000000000000000000000000000000000000000000000000000000600052601160045260246000fd5b6000610e41826105cf565b91507fffffffffffffffffffffffffffffffffffffffffffffffffffffffffffffffff8203610e7357610e72610e07565b5b60018201905091905056fea264697066735822122012a8649f7f5c1fabb22fa2966a3f70783736198d55651419c927ec5dd971a96564736f6c63430008140033",
  "linkReferences": {},
  "deployedLinkReferences": {}
}